:020000040800F2
:1000000040180020010100081F2500089D2300085A
:100010001B25000861100008914300080000000043
:10002000000000000000000000000000BF310008D8
:10003000F119000800000000652B00089D3B000836
:100040001B0100081B0100081B0100081B01000820
:100050001B0100081B0100081B0100081B01000810
:100060001B0100081B0100081B0100081B01000800
:100070001B0100081B0100081B0100081B010008F0
:100080001B0100081B0100081B0100081B010008E0
:10009000D54200081B0100081B0100081B010008D5
:1000A0001B0100081B0100081B0100081B010008C0
:1000B000013C00081B0100081B0100081B0100088F
:1000C0001B0100081B0100081B0100081B010008A0
:1000D0001B010008693D0008A93D00081B0100083C
:1000E0001B0100081B0100084F400008DFF80CD07E
:1000F00000F0ACFD00480047B9530008401800204C
:100100000648804706480047FEE7FEE7FEE7FEE7B1
:10011000FEE7FEE7FEE7FEE7FEE7FEE7A13B00089D
:10012000ED00000840EA01039B0703D009E008C97D
:10013000121F08C0042AFAD203E011F8013B00F8AC
:10014000013B521EF9D27047D2B201E000F8012BF8
:10015000491EFBD270470022F6E710B513460A4647
:1001600004461946FFF7F0FF204610BD0FB400B556
:100170008DB010A909900B9000914FF0FF300A90BC
:1001800000200C9005480690054807906A4609A88B
:100190000F9900F031FC0DB05DF814FB150A000852
:1001A000330A00082DE9FF5F1D464FF0FF3BD5E9FC
:1001B000014691465F464FF00008A9697F1C0198EF
:1001C0008847296A824688470028F6D1BAF1FF3F5E
:1001D0000CD024F4C064002E19DD600614D5BAF1E9
:1001E0002B0F09D0BAF12D0F0ED103E0584604B001
:1001F000BDE8F09F44F48064A9697F1C019888479A
:10020000761E8246002E02DDBAF1300F03D0B9F11E
:10021000000F26D032E0A969761E44F400747F1CDA
:10022000019888478246002E05DDBAF1780F06D086
:10023000BAF1580F03D0B9F1000F10D01EE0B9F198
:10024000000F02D0B9F1100F18D1A969761E24F45D
:1002500000747F1C019888478246102002E0082025
:1002600000E00A20814609E008FB0908A969761E1A
:1002700044F400747F1C019888478246002E05DDF7
:100280004946504600F0A4FB0028EDDAE9690198E0
:100290008847A00502D46FF00100A8E7E00725D148
:1002A000600613D5600502D5C8F1000000E04046A5
:1002B00029680A1D2A600968220501D5087015E021
:1002C000220701D5088011E008600FE02868011DB1
:1002D00029600068210502D580F8008006E021072A
:1002E00002D5A0F8008001E0C0F8008038467EE723
:1002F0002DE9FF5FD2E901A74FF000089169994607
:100300001446DDF838B0464601988847054659EA54
:100310000B0005D009E0A169761C019888470546C5
:10032000216A284688470028F5D1681C03D05FEA77
:10033000CA7005D015E04FF0FF3004B0BDE8F09F63
:100340002068011D2160D0F800800AE05FEACA70D1
:1003500001D108F8015BA169761C7F1E01988847CE
:100360000546002F1ADD681C18D0B9F1000F0DD01A
:10037000E81705EBD060421120F01F0059F8221059
:100380002A1A012090400142E0D107E0BBF1000FA2
:10039000DCD1216A284688470028D7D0E169019836
:1003A0008847BBF1000F07D1002E05DD5FEACA7058
:1003B00002D1002188F80010A068B84203DDBBF12B
:1003C000000F03D017B16FF00100B6E73046B4E775
:1003D000F0B480EA0102D40F4200B2EB410F02D226
:1003E0000246084611464A0042D0C30DDDB2C1F3B1
:1003F000C752AD1A202D35DAC1F3160141F40002BF
:1004000004B15242C5F1200602FA06F12A41104415
:10041000B3EBD05F23D0C4B1012DA0EBC35009DCF6
:10042000F0BC4FF0004202EAC352DBB200F500001C
:1004300000F019BB400000F1807000EBC350A0F148
:10044000807040EAD170490009E0490841EAC07172
:10045000A0EBC35000F50000400800EBC350F0BC17
:1004600000F0F8BA6142012202EB4101001BF6E7FD
:10047000F0BC704781F00041AAE780F00040A7E798
:100480002DE9FE4F804681EA0300C00F0C46009024
:1004900021F0004123F00045B8EB0200A94105D24C
:1004A0004046214690461C460B46024623F000403B
:1004B000104347D0270DC7F30A00C3F30A51029037
:1004C000401A019040286BDAC3F3130040F4801BFC
:1004D0000098924620B10023D2EB030A63EB0B0B8A
:1004E00001985946C0F14002504600F040FA0646D5
:1004F0000D4650465946019A00F058FA10EB080094
:100500006141002487EA115284EAE7731A4340D01C
:10051000009A62B3019A012A4FEA075215DC001BC8
:1005200061EB02014FF0004202EA0752CDE90042BE
:10053000001C41F5801132462B4600F0D1FA03B081
:10054000BDE8F08F40462146F9E7001B61EB020150
:10055000001C41F5801300185B412018A2F500171C
:1005600047EB030140EAD570B6196D4111E06D0803
:100570004FEA360645EAC0754FEA0752001B61EBA9
:100580000201001C41F5801149084FEA30000019B2
:10059000514132462B4603B0BDE8F04F00F091BA0E
:1005A0000098012240000023D0EB020263EBE073CD
:1005B000009821464FEAE074B8EB000061EB0401BB
:1005C000E9E783F000435BE781F0004158E72DE95C
:1005D000FE4F81EA030404F0004421F0004100943E
:1005E0004FF0000B23F0004350EA01045ED052EAC2
:1005F00003045BD0C3F30A54C1F30A552C44A4F29C
:10060000F3340194A0FB0254C1F3130141F48011AF
:10061000C3F3130343F4801301FB024400FB034EB6
:10062000840A970A44EA815447EA8357A4FB07687F
:1006300002958D0A05FB07854FEA932C04FB0C54A9
:100640002705029D4FEA065847EA1637B5EB08051D
:100650006EEB070C870E920E47EA811742EA83126F
:10066000A7FB0201B6EB0B0164EB00042B0D43EA80
:100670000C335E1844EB1C50DA465146E7FB02018E
:10068000C5F313044FEA0B3343EA14534FEA043221
:10069000019C43EA0603A4F10C040294009CCDE9FA
:1006A00000B400F01DFA03B0BDE8F08F0020014651
:1006B000F9E72DE9F04D81EA030404F0004B21F045
:1006C000004514464FF0000A23F0004150EA0502AD
:1006D00020D054EA01021DD0C5F30A570246C5F3E3
:1006E0001303C1F31300C1F30A5640F4801543F419
:1006F0008013A7EB0608101BD64608F2FD3873EBF3
:10070000050002D308F1010801E092185B41B8F13D
:10071000000F03DA00200146BDE8F08D00204FF401
:100720008011064684460EE0171B73EB050705D3C0
:10073000121B63EB050306434CEA010C49084FEA20
:10074000300092185B4150EA0107EDD152EA0300F4
:1007500012D082EA040083EA0501084305D0101B89
:10076000AB4106D20122002306E000224FF00043F5
:1007700002E06FF0010253101AEB06004CEB085137
:1007800010EB0A0041EB0B01BDE8F04D00F099B908
:10079000C10F80EAE0700844CA079623002100F0E8
:1007A00062B90EB5C10F80EAE0700844CA070021A3
:1007B00040F233438DE80E000A460B4600F090F9F4
:1007C00003B000BD0EB540F2334102910021CDE9E6
:1007D00000110A460B4600F083F903B000BD00F09B
:1007E000004220F00040C10DC0F3160040F40000AC
:1007F0007F2901DA00207047962903DCC1F19601B8
:10080000C84001E096398840002AF4D04042704741
:1008100070B5C1F30A5201F000450024C1F3130181
:1008200040F2FF3341F480119A4201DA002070BD9A
:1008300040F233439A42A2F2334203DC524200F0C8
:10084000A5F800E090402C43F1D0404270BD00F08C
:10085000004230F000400AD0C10D01F56071C0F3D4
:10086000160042EA0151C2084007114370470020B8
:100870000146704730B5041E71F1000404DB4FF0EF
:100880000044404264EB0101141E73F1000405DBD7
:100890001C464FF00043524263EB04038B4208BFF7
:1008A000824230BD30B5041E71F1000404DB4FF00C
:1008B0000044404264EB0101141E73F1000405DBA7
:1008C0001C464FF00043524263EB0403994208BFB9
:1008D000904230BD01F0004330B421F0004150EAB5
:1008E000010206D00A0DA2F56072C1F31301002ABD
:1008F00002DC30BC00207047440F44EAC104C10050
:10090000E01830BC00EBC25000F0A4B82DE9F05F55
:100910000546002092469B4688460646814640246E
:100920001BE0284641464746224600F02FF8534632
:100930005A46C01A914110D311461846224600F07B
:1009400016F82D1A67EB01084F46224601200021B8
:1009500000F00DF817EB00094E41201EA4F1010430
:10096000DFDC484631462A464346BDE8F09F202A50
:1009700004DB203A00FA02F1002070479140C2F1F6
:10098000200320FA03F3194390407047202A04DB28
:10099000203A21FA02F00021704721FA02F3D040F8
:1009A000C2F120029140084319467047202A06DB15
:1009B000CB17203A41FA02F043EAE07306E041FA2D
:1009C00002F3D040C2F1200291400843194670471B
:1009D0003A2800D2303820F02002412A01D3A2F177
:1009E0003700884201D34FF0FF307047026811444E
:1009F0001378016018467047D16004495161044979
:100A0000116200211161114600F038B9ED090008AA
:100A1000710C0008426842B1016811F8013B23B132
:100A2000521EC0E90012184670470121C160881E9D
:100A3000704742685AB1C368016843B983688B4202
:100A400005D0491E521CC0E90012002070474FF02B
:100A5000FF3070470029A8BF7047401C490008BFFD
:100A600020F00100704710B4B0FA80FC00FA0CF0DE
:100A700050EA010404BF10BC704749B1CCF1200416
:100A800021FA04F411FA0CF118BF012121430843A3
:100A9000A3EB0C01CB1D4FEA00614FEA102042BFCF
:100AA000002010BC704700EBC35010440029A4BFC5
:100AB00010BC7047401C490008BF20F0010010BC6A
:100AC000704710B5141E73F1000408DA401C41F1A0
:100AD000000192185B411A4301D120F0010010BDC2
:100AE0002DE9F04D92469B4611B1B1FA81F202E038
:100AF000B0FA80F220329046FFF739FF04460F46E5
:100B000040EA0A0041EA0B0153465A46084313D013
:100B1000114653EA010019D0C8F140025046FFF7D0
:100B200035FF05460E46504659464246FFF71FFF21
:100B3000084305D0012004E020463946BDE8F08D89
:100B40000020054346EAE0762C4337430A986305C4
:100B5000E40AA0EB08000022FD0A44EA47540A30E8
:100B600002D500200146E9E7010510196941DDE9D8
:100B7000084500196941BDE8F04DA2E770B521F0C4
:100B8000004303430CD0C1F30A550024D5EB040500
:100B900064EB0403D617AD1AB34102DB0020014613
:100BA00070BD201841EB025170BD2DE9F04D0023BE
:100BB0001A461B1A8A4103DB00200146BDE8F08D6E
:100BC000C1F30A52C1F3130141F480154FF0000B39
:100BD000D10702D100186D41521E0027044640F291
:100BE000FF11384601EB620A3E468046024600206D
:100BF0004FF48011FFF7CAFEC2197141BB1846EBD2
:100C00000100B4EB030C75EB000C04D3E41A65EBA4
:100C1000000517460E46241908F101006D41804673
:100C20003428E3DDF91946EB0600091BA84103D27D
:100C30004FF0FF32134601E0002213461BEB070082
:100C400046EB0A51BDE8F04DFFF73BBF064C074DA0
:100C500006E0E06840F0010394E80700984710348C
:100C6000AC42F6D3FFF746FA90830008B083000841
:100C7000C0B24FF4F05100F097B900002DE9F34FE6
:100C80008BB04FF0000801F10C000C464FF0010B47
:100C900046460DF1080A01906269012101989047CA
:100CA000051E2DD0252D2CD0216A8847C0B1626940
:100CB000012101989047216A88470028F7D1411EF9
:100CC00062690198904700E0761CA1690B988847FB
:100CD000216A88470028F7D1E1690B988847DBE74C
:100CE000A1690B9888470746A84201D1761CD3E733
:100CF000E1690B9888477F1C02D1B8F1000F6FD0D3
:100D000046E1002762693D463946019890472A2806
:100D100004D162690121019890470125DFF884928E
:100D20006269012101989047A0F130010A290AD295
:100D30004F45E5DC07EB870100EB4107303FDFD48F
:100D400045F01005ECE7E90601D46FF000476C2888
:100D50000AD04C2814D0682815D06A280DD07428E1
:100D60001CD07A281AD01DE06269012101989047B1
:100D70006C2802D045F0040514E045F002050DE0B2
:100D800045F020050AE06269012101989047682832
:100D900002D045F0080505E045F4006562690121CF
:100DA00001989047C4E9015765283DD019DC5828BF
:100DB0007AD00CDC452837D004DC252826D0412801
:100DC00031D131E046282FD047282CD12CE05B28A8
:100DD00077D0612828D063287CD0642823D15AE0BA
:100DE000D0E06F2848D008DC66281DD067281BD0CB
:100DF000692821D06E2816D127E0702845D07328A5
:100E000068D0752847D078280DD14DE0A1690B989E
:100E10008847054625283FF469AFE1690B98884764
:100E20006D1C3FF46AAFB3E023466A466FF00100E1
:100E30000B99AFF300809EE045F040006060A8078A
:100E400023464FF0000236D43EE0E8077FF447AF78
:100E50002068011D21600068290501D506701BE787
:100E6000290701D5068017E7A90703D5F117C0E9BF
:100E7000006111E706600FE745F040006060A807D9
:100E800023464FF0080216D41EE040F60E0125EA74
:100E90000100606016E045F040006060A80723464E
:100EA0004FF00A0207D40FE045F040006060A80749
:100EB00008D5234610226FF001000B99AFF3008094
:100EC00059E007E0234610226FF001000B99FFF76D
:100ED00069F950E04FF000094F464B46632802D0B5
:100EE0005B2806D040E0E80601D40120A06001277D
:100EF0003AE062690121019890475E2805D14FF0E0
:100F000001096269494601989047216939B9002170
:100F10000A46534643F82120491C0829FADBB0B39E
:100F2000216969B9C11700EBD16253110AEB830142
:100F300022F01F02821A01200B68904003430B60CD
:100F400062690121019890475D28E8D1B9F1000F4D
:100F500009D00020514651F82020D24341F82020EA
:100F6000401C0828F7DB02AB224600976FF0010017
:100F70000B99FFF7BDF900280CDA401C08D1BBF132
:100F8000000F05D04FF0FF300DB0BDE8F08FFFE748
:100F90004046F9E7E90701D108F1010806444FF09E
:100FA000000B79E6CCCCCC0C7F2801D9002208E0DC
:100FB000064A02EB5002C007127800D1120902F073
:100FC0000F02012090400840704700005083000845
:100FD00070B58C1810F8015B15F0070301D110F8FB
:100FE000013B2A1106D110F8012B03E010F8016B28
:100FF00001F8016B5B1EF9D12B0705D40023521EAB
:101000000DD401F8013BFAE710F8013BCB1A921C12
:1010100003E013F8015B01F8015B521EF9D5A14210
:10102000D8D3002070BD0000002800DA70470328E4
:1010300000DBFBE700EB4001054A02EB8101098977
:1010400000EB4002024B53F82220116100BFEDE794
:101050000482000810B501F064FA00F0A1FE10BD92
:1010600000BFFEE70146CAB20B1243EA02207047F6
:1010700008B50020009022E19748008800F00F009A
:10108000964908700846007800287CD1944800688A
:10109000944908800846008800F030009249088092
:1010A0009048008800F440508E4908808C490968B7
:1010B0004BF6BF7201EA020080F4005080F020007D
:1010C00040F4004141F08001854A11608248008867
:1010D00000F0100090BB1046006848F60F71084001
:1010E0001146086001F05CF97D4909684BF6BF7252
:1010F00001EA02007B49098801F4805109B180F4BA
:1011000080507849098801F4005109B180F40050F9
:101110007549098801F0100109B180F01000724989
:10112000098801F0200109B180F0200081B241F46A
:10113000004141F080016A4A116008BDFFE768483C
:10114000006880B20090BDF8000000F40060B0B309
:1011500063480068C0F30E0048F68F71084060498C
:10116000086002F0F3F95E4909684BF6BF7201EAC4
:1011700002005C49098801F4805109B180F4805073
:101180005849098800E056E001F4005109B180F4A3
:1011900000505549098801F0100109B180F0100094
:1011A0005149098801F0200109B180F0200081B285
:1011B00041F4004141F08001494A1160BDE7FFE779
:1011C000BDF8000000F40040002878D044480068D2
:1011D000C0F30E0048F68F7108404149086001F0E5
:1011E00085FC3F4909684BF6BF7201EA02003D49A0
:1011F000098801F4805109B180F480503949098887
:1012000001F4005109B180F400503749098801F018
:10121000100109B180F010003349098801F0200164
:1012200009B180F0200081B241F4004141F0800119
:101230002B4A116081E7294800782C4901EB800096
:10124000D0F8000C80B20090BDF8000000F400401F
:10125000C0B12248007801EB8000D0F8000CC0F348
:101260000E0048F68F7108401C4909781F4A02EBAE
:101270008101C1F8000C19490978491E1C4A52F82D
:1012800021008047BDF8000000F08000B8B113488D
:101290000078164901EB8000D0F8000C48F60F7179
:1012A00008400E490978114A02EB8101C1F8000C8F
:1012B0000A490978491E0F4A52F821008047084818
:1012C0004430006880B20449088000F400400028DF
:1012D0007FF4D2AE00BF30E768000020500100204C
:1012E000005C0040640100206601002000500040C6
:1012F00090000020740000200146C878532804D1D3
:1013000008794E2801D101207047C878532804D1AC
:101310000879572801D10220F6E70878642804D11B
:101320000879242801D10320EEE7C87841280AD1A2
:101330000879442807D148794D2804D1887949286B
:1013400001D10420E0E7C87850280AD10879532851
:1013500007D14879572804D18879442801D105203C
:10136000D2E7C87853280AD10879562807D1487996
:10137000492804D18879502801D10620C4E7C878CB
:1013800053280AD10879562807D14879502804D122
:101390008879542801D10720B6E70020B4E700007F
:1013A0000B4A02EB8001D1F8001C01F4804171B1BD
:1013B00002EB8001D1F8001C48F68F7211404CF20C
:1013C00080021143024B03EB8002C2F8001C7047FD
:1013D000005000400B4A02EB8001D1F8001C01F0E4
:1013E000400171B102EB8001D1F8001C48F68F7208
:1013F000114048F2C0021143024B03EB8002C2F8D5
:10140000001C704700500040084A02EB8001D1F8F0
:10141000001C48F68F62114048F280021143034BD2
:1014200003EB8002C2F8001C70470000005000402F
:1014300021B1026842F00102026004E002684FF646
:10144000FE731A400260704701684FF6FE72114049
:1014500001600021016041608160C1604B498842A8
:1014600008D14A490839496841F00F01474A083A0A
:1014700051608AE045491431884208D1434908390E
:10148000496841F0F001414A083A51607DE03F4926
:101490002831884208D13D490839496841F47061D2
:1014A0003A4A083A516070E038493C31884208D1E4
:1014B00036490839496841F47041344A083A516064
:1014C00063E032495031884208D1304908394968CF
:1014D00041F470212D4A083A516056E02B4964319D
:1014E000884208D129490839496841F47001274ADE
:1014F000083A516049E025497831884208D12349AA
:101500000839496841F07061204A083A51603CE06E
:101510001F49884206D1011F096841F00F01021FCF
:10152000116032E01A491431884208D11849091F64
:10153000096841F0F001164A121F116025E01449B4
:101540002831884208D11249091F096841F47061A5
:101550000F4A121F116018E00D493C31884208D132
:101560000B49091F096841F47041094A121F1160B3
:101570000BE007495031884207D10549091F096826
:1015800041F47021024A121F1160704708000240A6
:10159000080402400146486880B2704710B5002236
:1015A000026847F6F0739A430C6A8B6823430C6910
:1015B00023434C6923438C692343CC6923434C6AFE
:1015C00023438C6A23431A430260CB6843600B6851
:1015D00083604B68C36010BD416070472DE9F047E0
:1015E0002848006800F110052E8826480068077A10
:1015F000D6B9042F18D12448007801280FD1002132
:101600002248006880B2801C214A42F81010302025
:101610002049088000BF00201B49087003E007270D
:1016200010201C49088027E0AC88A64201D804207D
:1016300000E002200746B44200D93446A0B2A968AF
:1016400088478046002000F0EBFC8146A2B2494664
:10165000404602F09FFEA1B2002001F063FE288800
:10166000001B288068882044688030200949088051
:1016700000020949088000BF024909680F72BDE8ED
:10168000F0870000540100204E010020505C004013
:101690000060004066010020640100202DE9F04157
:1016A0002848006800F110042688A068C0B1BEB1C7
:1016B000A588B54200D93546A8B2A1688847074633
:1016C0002088401B2080608828446080002000F033
:1016D00085FC8046AAB24146384601F02FFA00BF89
:1016E000208850B14FF44050174908800021084627
:1016F00001F018FE3020154908802088A188884212
:1017000004DB03200F490968087218E020880028CC
:1017100004DD05200B490968087210E0208870B9C3
:10172000062008490968087200210948006880B24B
:10173000801C084A42F81010302004490880BDE897
:10174000F0810000540100206401002066010020A7
:10175000505C0040006000402DE9F84F9B48006855
:1017600045780027BA46062D1BD1984800680078B6
:1017700000F07F00002813D1944909688878012877
:1017800003D193490968CF690AE0022803D190493F
:1017900009680F6A04E0032802D18D4909684F6A7D
:1017A00094E0002D64D189480068408800285FD10A
:1017B00086480068C08802285AD1844800680079A9
:1017C000002855D181480068007800F07F0028B9D2
:1017D0007E480068808808B97E4F77E07B480068C3
:1017E000007800F07F00012810D178490968487915
:1017F000774909688A6900219047002866D17348B3
:101800000068807A002861D0724F5FE06F480068FE
:10181000007800F07F00022858D16C4800684079B9
:1018200000F00F0669480068407900F070096748C9
:101830000068407900F0800038B1674901EB86000C
:10184000D0F8000C00F0300806E0634901EB860098
:10185000D0F8000C00F4405860480078B04235D908
:10186000B9F1000F32D1B8F1000F2FD0594F2DE050
:10187000082D07D155480068007800F07F0028BB8C
:10188000574F23E00A2D21D150480068007800F01E
:101890007F0001281AD14D480068807AB0B14B48CA
:1018A0000068408890B949480068007970B9474895
:1018B0000068C088012809D1444909684879444929
:1018C00009688A690021904700B9464F57B13F48DF
:1018D0000068A0F812A03D48006887610020B84762
:1018E00000240FE0394A12685078394A12681169A9
:1018F00088470446032C05D1092034490968087239
:10190000BDE8F88F31480068008A4FF6FF718842C1
:1019100004D109202D4909680872F1E7022C03D08F
:101920002A480068008A20B90820284909680872F6
:10193000E6E726480068007800F08000E0B323481E
:101940000068C088009021480068008A0099884299
:1019500004D91E4900980968088223E01B480068E2
:10196000008A1A490968C98888421BDA1748006842
:10197000008A1749096891F82C10884203DA002080
:10198000194908700EE011480068008A104909687A
:1019900091F82C1090FBF1F201FB120010B901201C
:1019A000114908700A48006890F82C100748006830
:1019B0008182FFF713FE07E0FFE703200349096870
:1019C000087200030949088000BF99E7540100200C
:1019D00058010020ED37000800500040B8000020FA
:1019E00071370008C13700084E0100206401002053
:1019F000704701B502E00098401E00900098002852
:101A0000F9D108BD10B500240F480078012819D17C
:101A100040210E4802F0A4FC84B2002C0FDD2246C7
:101A2000C0210A4802F0B6FC2146012001F07AFCF0
:101A3000012001F0A5FC00200549086002E000201B
:101A40000149087010BD00006000002084130020D0
:101A50006400002010B50649032002F069FC84B23E
:101A60002146034802F046FC032001F031FC10BD82
:101A7000C4130020014908607047000014040140AD
:101A8000002123498279002A3AD00A461268036865
:101A90009A430B461A600A1D126803689A430B1D8D
:101AA0001A60027911440A6803681A430A60184AE6
:101AB0000832126803689A43154B08331A601A1DDE
:101AC000126803689A43124B0C331A604279102A49
:101AD0000ED11A1F126803681A430D4B08331A609F
:101AE0001A1D126803681A43094B0C331A600DE083
:101AF0000749427911440A6803681A430A6005E0FD
:101B0000027911440A6803689A430A60704700002A
:101B10000004014030B5044604254FF4302000F0A5
:101B20006FF80546042D17D10C48006940F00200FB
:101B30000A49086108464461006940F040000861B4
:101B40004FF4302000F05CF805460448006941F687
:101B5000FD71084001490861284630BD002002405F
:101B600004200B49C96801F0010109B101200EE010
:101B70000749C96801F0040109B1022007E00449DE
:101B8000C96801F0100109B1032000E0042070478A
:101B9000002002400348006940F0800001490861CC
:101BA000704700000020024070B504460D46042630
:101BB000F00200F025F80646042E11D1094800690C
:101BC00040F00100074908612580F00200F018F894
:101BD00006460448006941F6FE7108400149086163
:101BE000304670BD00200240024803494860034867
:101BF000486070472301674500200240AB89EFCD64
:101C000000B502460423FFF7ABFF034603E0FFF7EE
:101C1000A7FF0346521E012B01D1002AF7D102B9BA
:101C20000523184600BD000010B59AB0002410220C
:101C30005049514801F028FA4E4800884AF6AA2136
:101C4000884220D008464B49088008464088401CFE
:101C50004880084640884949488000204549888096
:101C60004649888073204349C8809F2008813A20D4
:101C700048818D20888141F28830C88110223E48F9
:101C800001F016FA73E03B484088401C394948800F
:101C900008464088394948803648808888803548D9
:101CA000C088C8803348018934480181314841895E
:101CB000324841812F488189304881812D48C0892F
:101CC0002E49C88110222B492B4801F0F1F914222A
:101CD00001A92B4801F0D8F9002406E001A810F86A
:101CE000140028490855601CC4B2BDF80400401C0B
:101CF000C0B2A042F2DC142201A9234801F0C4F9C9
:101D0000002406E001A810F8140020490855601CC2
:101D1000C4B2BDF80400401CC0B2A042F2DC1422E0
:101D200001A91B4801F0B0F9002406E001A810F851
:101D3000140018490855601CC4B2BDF80400401CCA
:101D4000C0B2A042F2DC142201A9134801F09CF9B0
:101D5000002406E001A810F8140010490855601C82
:101D6000C4B2BDF80400401CC0B2A042F2DC1AB0FC
:101D700010BD0000AA02002000A400089A02002062
:101D800000A80008CA02002000AC0008FC020020E5
:101D900000A000082E03002000B40008600300200B
:101DA00038B5214C002501208DF8020000BF38E035
:101DB0000121606800F08EFF2089ADF8000001204D
:101DC0008DF80200A07A18B910208DF8030021E0E8
:101DD000A07A012803D104208DF803001AE0A07A2C
:101DE000022803D148208DF8030013E0A07A0328CD
:101DF00003D128208DF803000CE0A07A042803D139
:101E000014208DF8030005E0A07A052802D11020E7
:101E10008DF803006946206800F008F8681CC5B218
:101E20000C34032DC4DB38BD048200082DE9F041D9
:101E3000024600250026002000230024002791F8F8
:101E400003C00CF00F0591F803C00CF0100CBCF1AE
:101E5000000F03D091F802C04CEA050591F800C0CC
:101E6000BCF1000F31D0146800202BE04FF0010CC2
:101E70000CFA00F3B1F800C00CEA03069E4220D130
:101E800083004FF00F0C0CFA03F7BC4305FA03FC78
:101E90004CEA040491F803C0BCF1280F06D14FF0BE
:101EA000010C0CFA00FCC2F814C00AE091F803C05F
:101EB000BCF1480F05D14FF0010C0CFA00FCC2F840
:101EC00010C0401C0828D1D31460B1F800C0BCF188
:101ED000FF0F34DD546800202EE000F1080C4FF0B5
:101EE000010808FA0CF3B1F800C00CEA03069E42A0
:101EF00021D183004FF00F0C0CFA03F7BC4305FA15
:101F000003FC4CEA040491F803C0BCF1280F05D18E
:101F100000F1080C08FA0CF8C2F8148091F803C01C
:101F2000BCF1480F07D100F1080C4FF0010808FA86
:101F30000CF8C2F81080401C0828CED35460BDE8CD
:101F4000F0810000F0B50A4600230024002100259E
:101F500000F00046B6F1004F02D11D4EF16901E0DC
:101F60001B4E7168C0F3034583B200F44016B6F50A
:101F7000401F08D121F07061154E766826F070661A
:101F8000134F7E6012E000F48016B6F5801F06D174
:101F9000032606FA05F4A14341F0706106E0460D00
:101FA000360103FA06F6B14341F0706122B1460DE5
:101FB000360103FA06F6314300F00046B6F1004F51
:101FC00002D1034EF16101E0014E7160F0BD0000ED
:101FD00000000140416170470161704701460548BA
:101FE000006880B200EBC100001D034A32F8100007
:101FF00080B27047505C00400060004001460648D7
:10200000006880B200EBC100801D044A32F8100065
:10201000C0F3090070470000505C004000600040C1
:1020200001460548006880B200EBC100034A32F85F
:10203000100080B270470000505C0040006000401B
:102040002DE9FF4FDDB083461446994600BF00BF1F
:1020500000BF00BFD4E900014B914A90D4E90201CE
:102060004D914C90D4E904014F914E90D4E9060172
:1020700045914490D4E9080147914690D4E90A017A
:1020800049914890D4E90C01CDE93E01D4E90E0113
:1020900041914090D4E9100143914290D4E900016C
:1020A000CDE93801D4E90201CDE93A01D4E90401CE
:1020B000CDE93C01D9F80000FEF773FB714A724B81
:1020C000CDE92201FEF783FA05460E46D9F8040051
:1020D000FEF767FB6B4A6C4BCDE92201FEF777FAFE
:1020E000CDE93601D9F80800FEF75BFB654A664B7F
:1020F000CDE92201FEF76BFACDE93401D9F80C00E5
:10210000FEF74FFB5F4A604BCDE92201FEF75FFA15
:10211000074688462EA8182238A9CDE920562290D5
:102120001AA8FDF7FFFFDDE934011822CDE91801F7
:102130003EA912A8FDF7F6FFDDE936011822CDE928
:10214000100144A90AA8FDF7EDFF18224AA902A828
:10215000CDE90856FDF7E6FF30A832A92FAB5A4665
:10216000CDE9001050A956A802F0B0FD8246BAF1A0
:10217000000F7DDB5E98012862D1182204F148012E
:1021800004A8FDF7CFFF58A80FC88DE80F001AA8C4
:10219000579B569A05F040FB18221AA928A8FDF76C
:1021A000C1FFDDE92C01CDE9000128A80FC805F029
:1021B000B8FBCDE92601182204F1480104A8FDF777
:1021C000B1FF52A80FC88DE80F001AA8519B509A72
:1021D00005F022FB18221AA928A8FDF7A3FFDDE9C4
:1021E0002C01CDE9000128A80FC805F09AFBCDE924
:1021F000240138464146DDE92623FEF7E2F921F0C5
:102200000041CDE9220138464146DDE92423FEF7AD
:10221000D8F921F00041CDE92001DDE92023DDE9F5
:102220002201FEF727FB05D2182256A95846FDF7D2
:1022300079FF04E0182250A95846FDF773FF17E014
:102240004F994E98CDE922015B995A98CDE920012A
:10225000DDE92223FEF70EFB05D2182256A95846C7
:10226000FDF760FF04E0182250A95846FDF75AFF19
:10227000BAF1000F03DB504661B0BDE8F08F4FF0BC
:10228000FF30F9E7FCA9F1D24D62503F10B598B08C
:10229000002400201849CDE900010021029103919A
:1022A0004FF08040CDE904101449CDE9060100212A
:1022B0000891099100220146CDE90A2100210C91E3
:1022C0000D914FF020400E4ACDE90E0200209207FA
:1022D000CDE91002129013900A49CDE91421002192
:1022E0001046CDE91610084B6A460848FFF7A8FECD
:1022F0000446204618B010BD000004C033331BC094
:10230000999925C0333317C060020020480200208D
:1023100070B50A480468001D0568001D066834444D
:1023200054B108220649204600F072F804220449FC
:102330001031284600F06CF870BD0000E8F7FF1F70
:102340003A0000201FB50B48006801900948001DA5
:1023500000680290074808300068039003980090D6
:1023600005A10D48DDE9012302F06CF9012004B05C
:1023700010BD0000E8F7FF1F41542B534E3D2530A0
:1023800038782D253038782D253038782D312D317D
:102390002E300D0A000000007002002000BFFEE792
:1023A00010B518480068047A022C01D0042C05D11D
:1023B000FFF714F913480068047A1CE0062C19D1C1
:1023C00010480068407805280ED10E480068007853
:1023D00000F07F0040B90B490968C87800F0F8FEAA
:1023E00009490968086A8047084909688868804778
:1023F000082400E00824034909680C7200F0B4FBCB
:1024000010BD000054010020600100205801002090
:1024100030B50B46002100BF16E00A24B4EB107F54
:1024200005D9302404EB107403F8114005E0412471
:1024300004EB10740A3C03F81140000100254C0025
:10244000641C1D554C1CE1B29142E6DB30BD00001E
:1024500008B501212C2000F03DFC0420ADF800005F
:1024600048208DF8030069460C48FFF7DFFC4FF465
:102470008070ADF8000048208DF8030069460848D8
:10248000FFF7D4FC4FF48050ADF8000048208DF8E1
:10249000030069460348FFF7C9FC08BD001401406A
:1024A00000080140000C014008B50121042000F0A3
:1024B00011FCE220ADF8000010208DF8030003208D
:1024C0008DF8020069460448FFF7B0FC022102487B
:1024D000FFF782FD08BD0000000801400548817A31
:1024E00019B10521044A116002E00121024A11607C
:1024F00070470000241400204001002010B504465D
:1025000000212046FEF794FFC8212046FFF764F81B
:1025100001212046FEF78CFF10BD00BFFEE770478B
:10252000704710B54FF4407000F03AF810BD00004D
:1025300070B5002100230F22C47804B3154C246821
:1025400004F4E064C4F5E064210AC1F10403CA4064
:10255000447804FA03F184781440214309010E4CB5
:102560000678A155047804F01F050124AC400578D5
:102570006D11AD0005F1E025C5F8004109E00478D2
:1025800004F01F050124AC40044D0678761145F88F
:10259000264070BD0CED00E000E400E080E100E0CA
:1025A00002490143024A1160704700000000FA0529
:1025B0000CED00E070B502264748006844784648B4
:1025C0000068007800F07F00002844D1092C03D176
:1025D00001F08CF906465FE0052C14D13E480068F6
:1025E000C0787F280BDC3C480068807838B93A48CE
:1025F0000068808818B938480068807A08B10825D2
:1026000065E0002648E0032C0ED133480068C0780E
:10261000012807D130480068808818B901F08AF98C
:10262000064639E0022637E0012C35D12A480068F9
:10263000C07801280DD128480068808848B926480C
:102640000068407A00F0200018B100F0DBFF064679
:1026500022E0022620E020480068007800F07F0099
:10266000012805D10B2C17D101F0E0F9064613E043
:1026700019480068007800F07F0002280BD1012C77
:1026800003D100F0BFFF064606E0032C04D101F0A1
:1026900065F9064600E002264EB1E0B20F4A126824
:1026A000516988470646032E01D109250FE00EB176
:1026B00008250CE0062500210948006880B2801C2E
:1026C000084A42F8101030200749088000BF02492C
:1026D00009680D7270BD00005401002058010020EF
:1026E000505C0040006000406601002070B500248E
:1026F00019E004F1B001C8B2002100F0BDF90021D9
:10270000084600F0B9F90021102000F0B5F90025C5
:1027100005E00121002000F0AFF9681CC5B2802D52
:10272000F7DB601CC4B2082CE3DB70BD08B50121E7
:10273000084600F0CFFA01215448FFF703FC0121BD
:102740001C2000F0C7FA40F2AA20ADF800001020CB
:102750008DF8030003208DF8020069464C48FFF70E
:1027600065FB40F2AA214B48FFF736FC2021484880
:10277000FFF732FC42F21070FFF73BF9202144488A
:10278000FFF728FC42F21070FFF733F92021404890
:10279000FFF722FC0021AE2000F06EF90021084670
:1027A00000F06AF90021102000F066F900214020B5
:1027B00000F062F90021812000F05EF90021CF20B5
:1027C00000F05AF90021A12000F056F90021C8209C
:1027D00000F052F90021A62000F04EF90021A820B7
:1027E00000F04AF900213F2000F046F90021D320F3
:1027F00000F042F90021084600F03EF90021D52002
:1028000000F03AF90021802000F036F90021D920AB
:1028100000F032F90021F12000F02EF90021DA2039
:1028200000F02AF90021122000F026F90021DB2017
:1028300000F022F90021402000F01EF900212020A4
:1028400000F01AF90021022000F016F900218D2075
:1028500000F012F90021142000F00EF90021A4204C
:1028600000F00AF90021A62000F006F90021AF20AF
:1028700000F002F90021AF2000F0FEF8FFF736FF6C
:102880000021084600F008F808BD000000023000F2
:10289000000C01400010014070B504460D4605F1E2
:1028A000B001C8B2002100F0E7F8102141EA14108D
:1028B000002100F0E1F804F00F0141F001000021D7
:1028C00000F0DAF870BD00002DE9F04106460C4634
:1028D00017464FF000080025A7F1200000F0FF0880
:1028E0007F2E02DD0026A01CC4B2601CC1B230469F
:1028F000FFF7D2FF00250AE008EB4801064A02EB89
:102900004101485D012100F0B7F8681CC5B2062DF1
:10291000F2DBBDE8F0810000EA7900082DE9F04F14
:1029200087B004468B4615461E46DDF840904FF0B2
:10293000000A002006902846FDF751FF82463046E7
:10294000FDF740FF07463A460B4600201A4902F0C1
:102950006DFFCDE902015046FDF71AFF804629467A
:10296000FDF78BFD0746FDF772FFCDE90001DDE9BC
:102970000223FDF72CFECDE90401FDF749FF069087
:102980000223524659462046CDF8009000F016F832
:1029900004F10C01C8B22E225946FFF795FF04F14D
:1029A0001201C8B23346CDF800905946069A00F09D
:1029B00005F807B0BDE8F08F000024402DE9FF5F67
:1029C000074691461D460E9E4FF0000A002433E054
:1029D000281B401EC1B20A2002F01CFFB9FBF0F018
:1029E0000A21B0FBF1F201FB1208BAF1000F13D17A
:1029F000681EA04210DDB8F1000F0BD1B34606EB04
:102A0000DB71491001FB0471C8B220220199FFF764
:102A10005BFF0FE04FF0010AB34606EBDB71491094
:102A200001FB0471C8B208F13001CAB20199FFF785
:102A30004BFF00BF601CC4B2AC42C9DBBDE8FF9FC6
:102A40002DE9F04104460F46154600260EE0AA5D2A
:102A500039462046FFF738FF04F10800C4B2782C4D
:102A600002DD0024B81CC7B2701CC6B2A85D0028E5
:102A7000EDD1BDE8F081000070B504460E4626B1E8
:102A800080211948FFF7A8FA03E080211648FFF7D4
:102A9000A1FA4FF400711448FFF79CFA002517E0E3
:102AA00002211148FFF796FA04F0800020B10821B6
:102AB0000D48FFF791FA03E008210B48FFF78AFA67
:102AC00002210948FFF788FA6006040E681CC5B2A7
:102AD000082DE5DB4FF400710348FFF77DFA8021F4
:102AE0000148FFF779FA70BD000C014010B511489C
:102AF0000068047A022C01D0042C01D1082412E0D1
:102B0000032C01D0052C05D1FEF7C8FD094800684B
:102B1000047A08E0072C05D107490968C86880478E
:102B2000082400E00824034909680C7200F01CF82E
:102B300010BD00005401002058010020F0B5561CC3
:102B40007510074E06EB41042B4605E034F8047B74
:102B500020F8017B401C5B1E002BF7D1F0BD00006C
:102B6000006000407047000010B50D4890F82C1030
:102B7000002000F067FB0B480068007A082805D1A8
:102B8000400209490880102008490880054800686B
:102B9000007A092801D1012010BD0020FCE70000C7
:102BA000BC000020540100206401002066010020C8
:102BB00010B5012001F052FA01240B4804600020F6
:102BC0000A49088008460088074908600020091D56
:102BD00008604FF4E0500549088008460088024923
:102BE0000860002010BD0000405C00405E01002035
:102BF00003461A60D960596099600020704770B52B
:102C000003461446002200209A6800BF11E0DD68E8
:102C10001E682E44551C2A46AE4200D8DA685D680C
:102C2000954200D107E011F8015B9E6835709A600B
:102C3000401CA042EBD300BF70BDF0B5034600209E
:102C40000EE05C68651C5D6027780546401C4F55AA
:102C5000DC681D682C445D68AC4201D8DC685C60AF
:102C60005C689D68AC4204D0904202D21C688442E9
:102C7000E7D8F0BD29B1064A52690243044B5A61B4
:102C800004E0034A52698243014B5A6170470000D5
:102C90000010024029B1064AD2690243044BDA61AE
:102CA00004E0034AD2698243014BDA6170470000B5
:102CB0000010024029B1064A12690243044B1A610E
:102CC00004E0034A12698243014B1A617047000015
:102CD0000010024029B1064A92690243044B9A61EE
:102CE00004E0034A92698243014B9A6170470000F5
:102CF0000010024029B1064AD2680243044BDA6050
:102D000004E0034AD2688243014BDA607047000056
:102D10000010024030B500210022002400232D4D78
:102D20006D6805F00C0121B1042905D0082923D1D3
:102D300005E0294D056022E0274D05601FE0254D87
:102D40006D6805F47012234D6D6805F4803402251A
:102D500005EB92421CB9214D554305600BE01D4D1A
:102D60006D6805F400351DB11C4D5543056002E04A
:102D7000194D5543056002E0174D056000BF00BFC7
:102D8000144D6D6805F0F0010909154D6B5C05687F
:102D9000DD4045600F4D6D6805F4E061090A104D96
:102DA0006B5C4568DD4085600A4D6D6805F46051D7
:102DB000C90A0B4D6B5C4568DD40C560054D6D680B
:102DC00005F44041890B074D6B5CC568B5FBF3F515
:102DD000056130BD0010024000127A0000093D007C
:102DE0006801002078010020014908607047000058
:102DF000D800424270B50546072D01D02E48057017
:102E00002D48007808284ED2DFE800F004111A207F
:102E10002B384E4F2948006828B900F053F8062097
:102E20002549087002E005202349087041E000F0C0
:102E300049F804202049087001202049086038E042
:102E400002201D4948700320087032E01A4840787B
:102E5000401E194948700846407808B90420087097
:102E600027E01748006884B244F010041448046056
:102E70000520114908700A2048701AE00E48407871
:102E8000401E0D4948700846407858B90C48006803
:102E900084B224F010040A48046006200870002060
:102EA0000649086005E000BF00BF0620024908701F
:102EB00000BF00BF70BD0000450100204801002098
:102EC000405C004010B50748006884B224F0040458
:102ED00004480460FFF702FB4FF43F4001490860DB
:102EE00010BD0000405C0040F0B599B006460F46AA
:102EF0003224002500247FE0385D002862D1042EB2
:102F000015D140480470002505E03E48405D2DF88D
:102F10001500681CC5B23B480078401CA842F4DC90
:102F200038480078421C6946374800F0C1F8052E41
:102F300015D136480470002505E03448405D2DF871
:102F40001500681CC5B231480078401CA842F4DC6A
:102F50002E480078421C69462D4800F0A9F8062E3C
:102F600015D12C480470002505E02A48405D2DF855
:102F70001500681CC5B227480078401CA842F4DC44
:102F800024480078421C6946234800F091F8072E37
:102F900015D122480470002505E02048405D2DF839
:102FA0001500681CC5B21D480078401CA842F4DC1E
:102FB0001A480078421C6946194800F079F8204602
:102FC00019B0F0BD042E03D1395D0E4A601C1154B6
:102FD000052E03D1395D0D4A601C1154062E03D114
:102FE000395D0C4A601C1154072E03D1395D0B4A20
:102FF000601C1154601CC4B2322CFFF67DAF204619
:10300000DEE70000CA02002000A80008FC02002041
:1030100000AC00082E03002000A000086003002080
:1030200000B4000810B5002413480068052822D118
:1030300012480078F8B912490868411C104A11601A
:10304000052818D100201146086040210D4801F0E4
:1030500087F984B2002C0EDD2246C021094801F018
:1030600099F92146012000F05DF9012000F088F96E
:1030700001200249087010BD4001002060000020BE
:10308000640000208413002030B503460C4615462A
:10309000002207E0184600F008F824F812009B1CF4
:1030A000501C82B2AA42F5DB30BD01460888704749
:1030B0002DE9F05F80468A461746B8F1006F02D3CB
:1030C0003348804501D3BDE8F09FFEF78DFDA8F1A0
:1030D000006B4FEA9B25CBF34809C9F50074A74262
:1030E00000DC3C464DE04FF0006101EB85208A1486
:1030F0002849FFF7C9FF00260BE009EB0600254928
:1031000031F810004FF6FF71884200D003E0701CC8
:1031100086B2A642F1DB00BFA6421BDA4FF0006187
:1031200001EB8520FEF7F6FC002608E03AF81600D1
:1031300006EB0901174A22F81100701C86B2A6425C
:10314000F4DB4FF0006101EB85208A14114900F097
:1031500023F804E022465146404600F01DF8A742FD
:1031600000D10FE06D1C4FF000090AEB440AA044A7
:10317000381B87B2B7F5007F02DD4FF4007400E022
:103180003C46B0E700BFFEF705FD00BF9BE700002F
:1031900000000208540500202DE9F04105460E46C6
:1031A0001746002407E036F814102846FEF7FCFC0A
:1031B000AD1C601C84B2BC42F5DBBDE8F0817047F9
:1031C0004FF6F8710140014A11607047505C0040B1
:1031D00030B501460F4B1A78002014E003060E4C60
:1031E00004EB9353D3F8003C48F68F74234048F225
:1031F00080042343C4B223430406074D05EB9454D3
:10320000C4F8003C401C9042E8D341F08003034CDA
:10321000236030BDB8000020005000404C5C0040EE
:1032200010B54A105300054A126892B202EBC00270
:10323000121D034C44F8123010BD0000505C0040D9
:103240000060004010B502460F48006880B200EBF5
:10325000C200801D0D4C04EB40033E290BDD4811DC
:1032600001F01F040CB9441EA0B24FF4004444EA1C
:1032700080241C6007E0481001F001040CB1441CDC
:10328000A0B284021C6010BD505C00400060004091
:1032900030B50E4C04EB8003D3F8003C4BF68F7432
:1032A00003EA040201F480530BB182F4805201F46A
:1032B00000530BB182F4005242F4004343F0800308
:1032C000024D05EB8004C4F8003C30BD00500040C6
:1032D00010B50B4B03EB8002D2F8002C4BF68F732A
:1032E00002EA030181F4805181F4005141F400426B
:1032F00042F08002024C04EB8003C3F8002C10BDA6
:103300000050004010B54A105200044B1B689BB29D
:1033100003EBC003024C44F8132010BD505C004086
:1033200000600040044A126892B202EBC002921C94
:10333000024B43F812107047505C004000600040A0
:1033400030B50E4C04EB8003D3F8003C48F6BF7454
:1033500003EA040201F010030BB182F0100201F045
:1033600020030BB182F0200242F4004343F08003BB
:10337000024D05EB8004C4F8003C30BD0050004015
:1033800010B50B4B03EB8002D2F8002C48F6BF734C
:1033900002EA030181F0100181F0200141F40042B2
:1033A00042F08002024C04EB8003C3F8002C10BDF5
:1033B0000050004010B5074B03EB8002D2F8002C00
:1033C00048F68F131A400A43024C04EB8003C3F8FB
:1033D000002C10BD0050004010B500F001F810BDE9
:1033E0000CB50020019000903348006840F4803014
:1033F0003149086000BF3048006800F40030009098
:103400000198401C0190009818B90198B0F5A06F80
:10341000F1D12948006800F4003010B1012000907B
:1034200001E0002000900098012843D12348006863
:1034300040F01000214908600846006820F00300B1
:1034400008600846006840F0020008601A484068BA
:10345000194948600846406848600846406840F49A
:10346000806048600846406820F47C104860084648
:10347000406840F4E81048600846006840F08070FA
:10348000086000BF0C48006800F000700028F9D008
:103490000948406820F00300074948600846406832
:1034A00040F00200486000BF0348406800F00C0094
:1034B0000828F9D10CBD0000001002400020024095
:1034C00008B54FF4A06216491648FFF791FB4FF478
:1034D000A06215491548FFF78BFB01210420FFF777
:1034E000F9FB4FF48060ADF8000003208DF8020076
:1034F00010208DF8030069460D48FEF797FC4FF445
:103500008020FEF7B7FA4FF480200A4908600820AF
:103510004871012088710846FEF7B2FA08BD000024
:103520008409002064090020840E00207409002012
:10353000002001403000002010B50020FFF754FCAF
:103540000121C805FFF7A6FB10BD000038B5012416
:103550002948006880B2001D284931F8100080B267
:1035600001EB4000009026480068007A092832D01C
:10357000009800782249096808700098401C009063
:10358000009800781E49096848700098401C009017
:10359000009800EB44000090009931F8020B009174
:1035A000FDF760FD164909684880009800EB44006B
:1035B0000090009931F8020B0091FDF753FD10497E
:1035C00009688880009800EB44000090009800880B
:1035D0000B490968C8800120094909680872084830
:1035E0000068C08810B9FEF7E5FF01E0FEF7B4F807
:1035F000FFF7BAFA38BD0000505C004000600040A0
:10360000540100202DE9F04754480068007800F08C
:103610007F08B8F1000F0AD150480068407A00F0E6
:10362000DF004E49096848720020BDE8F087B8F114
:10363000020F7CD149480068408818B947480068A3
:10364000007908B10220F0E7DFF8149143480068E0
:10365000477927F080052C4640480068407900F003
:10366000800038B13F4901EB8400D0F8000C00F035
:10367000300606E03B4901EB8400D0F8000C00F472
:10368000405699F80000A84204D91EB1334800689A
:10369000807A08B90220C8E707F0800080B131497C
:1036A00001EB8400D0F8000C00F0300010284BD162
:1036B000E0B2FDF78FFEE0B23021FFF741FE43E0BC
:1036C000284901EB8400D0F8000C00F44050B0F51C
:1036D000805F39D1E4B9244A92F82C10E0B2FFF7A8
:1036E000B1FD204A02EB8401D1F8001C4BF68F7229
:1036F00001EA020080F4805080F4005040F4004160
:1037000041F08001174B03EB8402C2F8001C1BE060
:10371000E0B2FDF745FE134A02EB8401D1F8001C2C
:103720004BF68F7201EA020080F4805000E011E055
:1037300080F4005040F4004141F08001094B03EB5C
:103740008402C2F8001C00BF084909684869804724
:1037500000206AE700BF022067E700005401002054
:10376000B800002000500040BC0000206001002094
:1037700010B504462CB901200649096808820020CA
:1037800010BD0549096808688047024800680A308A
:10379000F6E70000540100206001002010B5024649
:1037A00006480068438A32B98888C01A034C2468E6
:1037B0002082002010BD08681844FBE75401002057
:1037C00010B504462CB9012006490968088200207A
:1037D00010BD0549096888688047024800680C30B8
:1037E000F6E70000540100206001002010B50446F7
:1037F0002CB90220394909680882002010BD002038
:103800003749088035480068007800F07F0018BB11
:1038100032490968487A00F0200131B1304909780D
:1038200041F002012E4A117005E02D49097801F09E
:10383000FD012B4A117000F0400131B1284909788F
:1038400041F00101264A117005E02549097801F08F
:10385000FE01234A11703AE020480068007800F029
:103860007F00012801D11E48C8E71C480068007885
:1038700000F07F00022828D1184A1268517901F01F
:103880000F0001F080027AB1164B03EB8002D2F8F0
:10389000002C02F03002102A16D1114A127842F0A0
:1038A00001020F4B1A700FE00E4B03EB8002D2F8AF
:1038B000002C02F44052B2F5805F05D1084A12781C
:1038C00042F00102064B1A7001E0002096E706491B
:1038D000096808698047024890E700005401002009
:1038E0004C010020005000406001002010B50E483F
:1038F0000068C0780D494978884213DC0A4800689E
:10390000807878B908480068808858B90648006807
:10391000C078054909688872054909684868804780
:10392000002010BD0220FCE754010020B800002058
:103930006001002010B507480068407A40F0200080
:1039400004490968487204490968C8698047002029
:1039500010BD000054010020600100202DE9F0415D
:103960002E480068467926F080073C462B480068C0
:10397000407900F0800038B1294901EB8400D0F88B
:10398000000C00F0300506E0254901EB8400D0F87A
:10399000000C00F4405523480078A04208D91F4885
:1039A0000068408820B91DB11C480068807A10B9B1
:1039B0000220BDE8F08106F08000A0B1184A02EBB9
:1039C0008401D1F8001C48F6BF7201EA020080F0C1
:1039D000100040F4004141F08001114B03EB8402E0
:1039E000C2F8001C14E00E4A02EB8401D1F8001C5E
:1039F0004BF68F7201EA020080F4805040F40041DF
:103A000041F08001064B03EB8402C2F8001C00BFAA
:103A100005490968886980470020CAE754010020E9
:103A200000500040B80000206001002010B5174B86
:103A30001B68D978154B1B685879154B1B689A6918
:103A40009047044611480068807AE8B13CB90F48B5
:103A50000068007918B90D480068807808B1022024
:103A600010BD8CB90B490968C868804707480068D1
:103A7000407906490968C87204480068C07803495B
:103A8000096808730020EBE70220E9E754010020F1
:103A9000580100206001002038B5002100220023D9
:103AA0000093394B1B6898B200BF09E0374C04EB18
:103AB0008103D3F8003C9BB2354C44F82130491CBB
:103AC0000829F3D340F480602F4B186040F00100C8
:103AD000186020F00100186000BF2B4B1B1D1B68F5
:103AE00003F48063002BF8D04FF6FF33264C241DDF
:103AF0002360002109E0264B53F821309BB2234D6F
:103B000005EB8104C4F8003C491C0829F3D340F0BC
:103B100008001D4B18601B6898B240F004001A4B57
:103B200018601C4B1B6800931A4B1A6822F00302A2
:103B300042F001021A60184B1B6843F00403164C54
:103B40002360114B1B1D1B6803F480532BB92346C4
:103B50001B6823F00403236014E04EF6FF730A4C45
:103B6000241D2360231F1B6898B220F00800231F28
:103B70001860084C009B2360074B1B6823F004036C
:103B8000054C236038BD0000405C00400050004000
:103B9000041400200070004010ED00E070470000A9
:103BA00010B51348006840F001001149086008464C
:103BB0004068104908400E494860084600680E49B0
:103BC00008400B4908600846006820F4802008601F
:103BD0000846406820F4FE0048604FF41F008860EB
:103BE000FFF7FAFB4FF000600449086010BD0000C9
:103BF000001002400000FFF8FFFFF6FE08ED00E0B5
:103C000010B50121880700F043F818B10121880799
:103C100000F02FF810BD7FB505460C46012108467F
:103C2000FFF738F8ADF80850ADF804400020ADF8C3
:103C30000600ADF80A0001A94FF0804000F042F8FC
:103C400001221146900700F034F81C208DF8000086
:103C500000208DF8010003208DF8020001208DF86E
:103C600003006846FEF764FC0121880700F004F8B1
:103C70007FBDCA430282704721B1028842F001022F
:103C8000028004E002884FF6FE731A4002807047FB
:103C900030B50246002000230024158A05EA0103FE
:103CA000958905EA010413B10CB1012000E0002060
:103CB00030BD1AB183890B43838102E083898B4332
:103CC00083817047002202881D4B98420ED01D4B05
:103CD00098420BD0B0F1804F08D01B4B984205D0D2
:103CE0001A4B984202D01A4B984204D14FF68F7368
:103CF0001A404B881A43174B984207D0164B9842EC
:103D000004D04FF6FF431A40CB881A4302808B88B9
:103D100083850B8803850A4B98420BD0094B984248
:103D200008D00E4B984205D00D4B984202D00D4B57
:103D3000984201D10B7A03860123838270470000E9
:103D4000002C014000340140000400400008004005
:103D5000000C0040001000400014004000400140F2
:103D6000004401400048014010B540F224410B4896
:103D700000F0ACF888B1094800F064F90848FDF794
:103D800009FCC0F1C8000749088040F224410348FB
:103D900000F02AF80248FEF7B1FB10BD00380140E0
:103DA000580002402000002010B540F225510B4879
:103DB00000F08CF888B1094800F044F90849094A34
:103DC0001278885407480078401C06490870084655
:103DD0000078322801DD0020087010BD004400404A
:103DE000220500202A00002010B50022002340F602
:103DF0006A14A14200D100BF0A1201249440A3B268
:103E0000DC43048010BD21B1828942F400528281DA
:103E100004E082894DF6FF731A40828170471AB11F
:103E2000838A0B43838202E0838A8B4383827047B9
:103E300010B504462048844209D101218803FEF7C9
:103E400059FF00214FF48040FEF754FF32E01B4839
:103E5000844209D101214804FEF72CFF00214FF4D0
:103E60000030FEF727FF25E01548844209D10121E3
:103E70008804FEF71FFF00214FF48020FEF71AFF91
:103E800018E01048844209D10121C804FEF712FF4E
:103E900000214FF40020FEF70DFF0BE00A4884429A
:103EA00008D101210805FEF705FF00214FF480101D
:103EB000FEF700FF10BD0000003801400044004044
:103EC00000480040004C00400050004070B50246E1
:103ED000002400230025002040F66A16B14200D1DC
:103EE00000BFC1F3421501F01F03012606FA03F3D8
:103EF000012D02D19689334006E0022D02D1168AA7
:103F0000334001E0968A33400C12012606FA04F48D
:103F10001688344013B10CB1012000E0002070BDC0
:103F2000F0B50346002400260025002040F66A175D
:103F3000B94200D100BF1846C1F3421401F01F0678
:103F4000012707FA06F5012C01D10C3004E0022C00
:103F500001D1103000E014301AB107682F43076018
:103F600002E00768AF430760F0BD00002DE9F047AD
:103F700086B005460E460024A24600BFA146002793
:103F8000B08900B100BF2F462C8A4CF6FF70044068
:103F9000F08804432C82AC894EF6F3100440B088BC
:103FA00031890843718908430443AC81AC8A4FF6D8
:103FB000FF400440B0890443AC8201A8FEF7AAFE8A
:103FC0001F48874202D1DDF810A001E0DDF80CA007
:103FD000A88900F4004040B10AEBCA0000EB0A10C7
:103FE00031684900B0FBF1F807E00AEBCA0000EBCA
:103FF0000A1031688900B0FBF1F86420B8FBF0F0DA
:1040000004012009642101FB1089A88900F4004003
:1040100040B1322000EBC900B0FBF1F000F0070026
:10402000044308E0322000EB09106421B0FBF1F0FA
:1040300000F00F0004432C8106B0BDE8F0870000BB
:104040000038014001468888C0F30800704710B569
:104050004FF48020FDF70EFD10BD000010B50446A2
:104060002CB94FF480610548FDF7B4FF04E04FF42C
:1040700080610248FDF7B0FF10BD00000020014044
:1040800010B5FFF71DFAFFF757FA00F021F800F01E
:1040900001F810BD10B508480849086002200968F9
:1040A0000872074807490860074808490860054939
:1040B00009680868804710BD2414002054010020BE
:1040C000BC00002058010020EC000020600100200E
:1040D00008B514208DF8000002208DF801000020A2
:1040E0008DF8020001208DF803006846FEF720FAE3
:1040F0002A208DF8000000208DF801006846FEF7A8
:1041000017FA08BD10B588B00024694800686949ED
:1041100008800846008800F4007067490988084054
:1041200050B14FF6FF506249086064480078401C67
:1041300062490870FEF776FF5E48008800F4004090
:104140005D490988084008B1FCF792FF594800888A
:1041500000F4806058490988084030B14FF6FF30BC
:10416000534908605649486880475248008800F41F
:10417000005051490988084018B14DF6FF704C496C
:1041800008604C48008800F480504B49098808407A
:1041900030B14EF6FF70464908600020FEF72AFE57
:1041A0004448008800F4006043490988084060B131
:1041B0004448007810B1FFF76FFC02E00220FEF7E0
:1041C00019FE4FF2FF703A4908603A48008800F43F
:1041D0008070394909880840002866D04FF6FF6092
:1041E00033490860081D006800F40040002856D0DC
:1041F00035480068401C34490860084600680328B8
:1042000050D92B48001F006800F00800002849D151
:104210002748001F006880B22C490860002408E08D
:104220002B4901EB8400D0F8000C80B24DF824003B
:10423000641C082CF4D32548006840F00100234991
:1042400008600846006880B21949091F08601F48C5
:10425000006820F001001D4908600846006880B22F
:104260001349091F086000BF1148006800F480600E
:104270000028F9D04FF6FF300D490860002408E00F
:104280005DF8240080B2124A02EB8401C1F8000CF0
:10429000641C082CF4D300200B49086002E00020C5
:1042A000094908600720FEF7A5FD08B010BD000011
:1042B000445C0040680000205E0100206A0000208D
:1042C000BC000020440100206C0000207000002091
:1042D0000050004010B5FFF715FF10BD70B5044643
:1042E0000D462A4621460248FEF7A7FC70BD000095
:1042F0006409002070B504460D462A46214602484E
:10430000FEF77DFC70BD0000640900200020064916
:1043100008604FF43F40054908800846008802497C
:10432000091F086000207047445C00405E010020C7
:104330002DE9F04104460E46002504F07F00FDF70C
:104340005DFE054604F07F00FDF748FE07462A465D
:1043500039463046FEF7F2FB2846BDE8F081000002
:1043600070B504460D462A4621460248FEF765FC14
:1043700070BD00007409002070B504460D462A4641
:1043800021460248FEF73BFC70BD00007409002086
:1043900000BFFEE7F0B5144604F1010C4FEA6C07CC
:1043A000DFF824C00CEB41033D460AE00678401CD0
:1043B00090F800C046EA0C2223F8022B9B1C401CFC
:1043C0006D1E002DF2D1F0BD0060004070B50446B6
:1043D0000025212C08D112480068007800F07F00E9
:1043E00021280ED10F4D0CE0202C0AD10C4800687A
:1043F000007800F07F00212800D10B4D20200B49D0
:1044000008700DB9022070BD054800688561002163
:104410000348006841820020A8470020F3E700001D
:104420005401002059440008E9450008AC00002070
:1044300010B5044602492046FFF7B0F910BD000050
:104440001801002010B5044602492046FFF7A6F9DE
:1044500010BD000010010020014629B90820034AC0
:1044600012681082002070470148FCE754010020C8
:10447000B000002070B5054606480068C478042CDA
:1044800001DD002070BD044800EBC4012846FFF7A1
:1044900085F9F7E754010020200100200246002999
:1044A00001DD02207047012A01DD0220FAE7002029
:1044B000F8E70000014608480068007800F07F0037
:1044C000212807D1022901D100207047222901D1DA
:1044D0000020FAE70220F8E75401002010B5002080
:1044E0003449096888723448C07932490968487289
:1044F000002030490968C872FEF762FE4FF400716F
:104500000020FEF757FF10210020FEF719FF402181
:104510000020FEF785FE80210020FEF7F3FE00203C
:10452000FCF772FF254890F82C100020FEF78AFE59
:104530000020FEF7CDFE00210120FEF73BFFC02149
:104540000120FEF7DFFE20210120FEF7F9FE002109
:104550000120FEF79DFE4FF4C0610220FEF72AFF06
:104560004FF480710220FEF7CDFE00210220FEF7FD
:104570008FFE20210220FEF7E3FE00210320FEF73C
:1045800019FF4FF488710320FEF74AFE40210320F3
:10459000FEF758FE4FF440510320FEF779FE00214C
:1045A0000320FEF7CDFE0020FEF712FE0120044995
:1045B000086010BD540100203A820008BC000020B1
:1045C000400100200348817A11B10521024A11609F
:1045D00070470000241400204001002004200149FD
:1045E0000860704740010020014629B90820034AAD
:1045F00012681082002070470148FCE75401002037
:10460000B000002003480078202802D10020014992
:1046100008707047AC0000207047000010B5FDF72F
:1046200077FE0020054909688872FEF7C1FAFFF796
:104630006DFE00200249086010BD000054010020FA
:10464000400100200FB4084B10B504A902AA03983A
:1046500000F0ACF8044602A9002000F0D8FA204689
:1046600010BC5DF814FB00000F4C0008490050EA34
:10467000C12018BF04204A0D18BF40F0010040F2CD
:10468000FF72B2EB515F08BF40F00200012808BF83
:10469000052070472DE9F0414F1E00EBC70104468D
:1046A000D1E9000115461E4637F006020DD02A4614
:1046B0003346FBF78CFF7F1E04EBC703D3E90023CF
:1046C000FBF7DEFE37F00602F1D1022F25D0042FD2
:1046D00013D0062F18BFBDE8F0812A463346FBF7FA
:1046E00076FFD4E90A23FBF7CBFE2A463346FBF7D5
:1046F0006EFFD4E90823FBF7C3FE2A463346FBF7D7
:1047000066FFD4E90623FBF7BBFE2A463346FBF7D8
:104710005EFFD4E90423FBF7B3FE2A463346FBF7DA
:1047200056FFD4E90223FBF7ABFE2A463346FBF7DC
:104730004EFFD4E90023BDE8F041FBF7A1BE000025
:104740000022134610460149FBF7B3BF0000F03FBB
:10475000FBF796BE0022134610461146FBF7A9BF91
:1047600040F2013200204FF0E041FCF707BA0000B0
:10477000024A00201107FCF701BA000001FDFFFF0B
:1047800002E008C8121F08C1002AFAD1704770471A
:10479000002001E001C1121F002AFBD17047000078
:1047A00001490860704700007C0100202DE9FF4F9F
:1047B0008DB00F460546002606E025280BD0DDE922
:1047C0000F1290476D1C761C28780028F5D111B087
:1047D0003046BDE8F08F0024A246A1460122EC49F4
:1047E00000E0044315F8013F203B02FA03F00842C1
:1047F000F7D128782A2810D06FF02F022878A0F15E
:104800003001092914D80AEB8A0102EB410144F076
:10481000020400EB010A6D1CF0E701CF5FEA000A19
:1048200003D544F40054CAF1000A44F002046D1C9C
:1048300028782E2817D115F8010F44F004042A28EF
:104840000ED06FF02F022878A0F1300109290AD884
:1048500009EB890102EB410100EB01096D1CF2E754
:1048600057F8049B6D1C28786C280FD006DC4C2868
:1048700017D068280DD06A2814D104E0742810D00D
:104880007A280FD10DE044F400140AE044F48014B7
:1048900001E044F440146978814202D104F58014A7
:1048A0006D1C6D1C2A786E2A1FD00CDC632A31D057
:1048B00004DC002A8BD0582A11D1A3E0642A68D0E6
:1048C000692A0CD165E0732A2ED004DC6F2A73D0DC
:1048D000702A04D19BE0752A6FD0782A6ED01046DA
:1048E000DDE90F129047761C50E1C4F30250022814
:1048F00006D0032809D0042801CF09D0066045E17D
:1049000001CFF117C0E9006140E101CF06803DE130
:1049100006703BE117F8040B8DF8000000208DF8BD
:104920000100EB46012003E057F804BB4FF0FF30D5
:1049300061074FF0000102D40DE008F10101884643
:1049400049450FDA8045F8DB1BF808100029F4D13F
:1049500008E008F1010188468142FADB1BF80810E3
:104960000029F6D1DDE90F23AAEB08008146214694
:1049700000F036F9304400EB080604E0DDE90F12E0
:104980001BF8010B9047B8F10108F7D221464846C1
:10499000F7E00A21C4F302534FF0000B0891022BF9
:1049A00004D001CFC117032B09D00AE0FF1D27F067
:1049B0000707F7E8020108E032E01FE020E000B25C
:1049C000C117042B01D140B2C117031E71F10003BE
:1049D00007DA4FF0000CD0EB0C006CEB01012D233B
:1049E00002E0230504D52B238DF82430012303E0B6
:1049F000E30701D02023F7E7984658E00A2110E0AA
:104A000010210EE010204FF0000B08900CE0102158
:104A10004FF0000B44F004044FF00809089103E044
:104A200008214FF0000B0891C4F30253022B04D06D
:104A300001CF0021032B06D006E0FF1D27F007075A
:104A4000F7E8020103E080B2042B00D1C0B24FF0BE
:104A5000000823072BD5702A07D0DDF820C08CF082
:104A6000100C5CEA0B0C05D00EE040238DF82430CE
:104A7000012308E050EA010306D030238DF82430EA
:104A80008DF8252002239846DDF820C08CF0080C14
:104A90005CEA0B0C0BD150EA010301D1630706D588
:104AA00030238DF824304FF00108A9F10109582A6C
:104AB00004D038A20B9208AA0A920BE03AA2F9E7B6
:104AC0005B46089AFBF722FF0B9B9B5C0A9A521EDF
:104AD0000A92137050EA0102F2D10A98ADEB00007D
:104AE00000F1200B600702D524F4803401E04FF080
:104AF0000109D94502DDA9EB0B0000E0002000EB25
:104B00000B0141440890AAEB010AE00306D4DDE959
:104B10000F232146504600F063F806444FF0000989
:104B200008E009A911F80900DDE90F12904709F121
:104B30000109761CC145F4DBE0030CD5DDE90F2348
:104B40002146504600F04CF8064404E0DDE90F121F
:104B500030209047761C0899481E08900029F5DC03
:104B600008E00A980A990078491C0A91DDE90F12B9
:104B70009047761CBBF10001ABF1010BF1DC214643
:104B80005046DDE90F2300F019F806446D1C1BE6C2
:104B90000928010030313233343536373839616213
:104BA00063646566000000003031323334353637D7
:104BB0003839414243444546000000002DE9F041A8
:104BC000044600251E461746880404D405E03946ED
:104BD0002020B0476D1C641EF9D52846BDE8F08141
:104BE0002DE9F041044600251E469046C80301D534
:104BF000302700E02027880404D505E041463846E8
:104C0000B0476D1C641EF9D52846BDE8F0810A68DE
:104C1000531C0B60107070470FB42DE9F04F87B034
:104C2000DDE91A432246DDE916613046FBF7CFFC89
:104C300080468946DDE91C432246DDE914613046A1
:104C4000FBF7C5FC824642464B46FBF7BAFCCDE972
:104C50000001DDE91C432246DDE912613046FBF725
:104C6000B6FC80468946DDE918432246DDE9166137
:104C70003046FBF7ACFC824642464B46FBF7A1FCB4
:104C8000CDE90201DDE918432246DDE91461304631
:104C9000FBF79DFC80468946DDE91A432246DDE9A3
:104CA00012613046FBF793FC824642464B46FBF7C7
:104CB00088FCCDE90401182269461098FBF732FA06
:104CC00007B0BDE8F00F5DF814FB00000FB5ADF5BF
:104CD000097D002053905290042054900022FE49F8
:104CE0008F98C0E9002100BF00205F915E900021F5
:104CF0006A916B916C916D916E916F9100BF0020E4
:104D0000519050905590979996985D915C909F998D
:104D10009E985B915A90A799A69859915890AF99EF
:104D2000AE985791569000BFEC49ED48CDE9201060
:104D3000579956981822CDE91E01A8A918A8FBF783
:104D4000F1F9599958981822CDE91601A0A910A88F
:104D5000FBF7E8F95B995A981822CDE90E0198A95A
:104D600008A8FBF7DFF95D995C981822CDE90601E8
:104D700090A96846FBF7D6F976AA7CA982A801F02B
:104D800075FC4F904F98B0F1FF3F0ED0032802D032
:104D900004280DD104E003205290012051902BE013
:104DA000042052900120519026E00120509023E0F1
:104DB000CC4ACD4B5D995C98FBF762FB5D915C90B2
:104DC000C84AC94B5B995A98FBF75AFB5B915A90BA
:104DD000C44AC54B59995898FBF752FB59915890C2
:104DE000C04AC14B57995698FBF74AFB57915690CA
:104DF0005598401C559000BF00BF519828B9559850
:104E0000052802DC509800288ED0519800287CD0CC
:104E10004F98032802D0042878D10FE0182282A9E5
:104E20008998FBF77FF918227CA98A98FBF77AF911
:104E30008C995598086000205490A3E11822A0A9ED
:104E40000EA8FBF76FF9182298A908A8FBF76AF9D2
:104E5000182290A902A8FBF765F97B997A98CDE909
:104E6000000176A80FC800F0CFF9619160905F9BB8
:104E70005E9A61996098FBF7FDFC7CD8182282A9A4
:104E80008998FBF74FF918227CA98A98FBF74AF911
:104E9000182276A98B98FBF745F98C9955980860EC
:104EA0001822A8A904A8FBF73DF978A80FC88DE837
:104EB0000F0048A8779B769A02F0AEFC4D994C986B
:104EC000CDE9000148A80FC802F02BFDCDE9120181
:104ED000AF9BAE9AFBF775FB1822CDE91601A8A986
:104EE00004A8FBF71FF978A80FC88DE80F0042A8A7
:104EF000779B769A02F090FC47994698CDE900019D
:104F000042A80FC802F00DFD01E03CE139E1CDE916
:104F10001201AF9BAE9AFBF754FBCDE91401DDE91A
:104F20001623FBF754FB1822CDE91A01A0A904A807
:104F3000FBF7F8F878A80FC88DE80F003CA8779B1E
:104F4000769A02F069FC41994098CDE900013CA8AD
:104F50000FC802F0E6FCCDE90E01A79BA69AFBF76D
:104F600030FB1822CDE91201A0A904A8FBF7DAF85A
:104F700078A80FC800E003E18DE80F0036A8779B02
:104F8000769A02F049FCDDE93A01CDE9000136A844
:104F90000FC802F0C6FCCDE90E01A79BA69AFBF74D
:104FA00010FBCDE91001DDE91223FBF710FB1822FD
:104FB000CDE9160198A904A8FBF7B4F878A80FC8A2
:104FC0008DE80F0030A8779B769A02F025FCDDE98A
:104FD0003401CDE9000130A80FC802F0A2FCCDE9F0
:104FE0000A019F9B9E9AFBF7ECFA1822CDE90E016D
:104FF00098A904A8FBF796F878A80FC88DE80F00C9
:105000002AA8779B769A02F007FCDDE92E01CDE90C
:1050100000012AA80FC802F084FCCDE90A019F9B79
:105020009E9AFBF7CEFACDE90C01DDE90E23FBF7E2
:10503000CEFA1822CDE9120190A904A8FBF772F864
:1050400078A80FC88DE80F0024A8779B769A02F005
:10505000E3FBDDE92801CDE9000124A80FC802F037
:1050600060FCCDE90A01979B969AFBF7AAFA1822F1
:10507000CDE90E0190A904A8FBF754F878A80FC851
:105080008DE80F001EA8779B769A02F0C5FBDDE93C
:105090002201CDE900011EA80FC802F042FCCDE9B3
:1050A0000A01979B969AFBF78CFACDE90C01DDE992
:1050B0000E23FBF78CFACDE91001DDE91223FBF793
:1050C000DFF9CDE91401DDE91623FBF7D9F9CDE9C4
:1050D0001801DDE91A2309E00000F03FFCA9F1D234
:1050E0004D62503F9A9999999999B93FFBF7C8F940
:1050F000CDE91C0101F094FA8E9A03C28F9A61994E
:10510000609803C218226AA964A8FBF70BF861999A
:1051100060985F915E905498C0F10501B09801606D
:10512000182290A970A8FAF7FDFF182298A990A854
:10513000FAF7F8FF1822A0A998A8FAF7F3FF1822A7
:10514000A8A9A0A8FAF7EEFF182270A9A8A8FAF754
:10515000E9FF97999698639162909F999E9897918D
:105160009690A799A6989F919E90AF99AE98A79177
:10517000A69063996298AF91AE905498401E549057
:1051800000E000BF03E004205390002054905498A6
:1051900000287FF4B4AD5398042804DB4FF0FF30AF
:1051A0000DF50D7D00BD5298FAE70FB42DE9FF5FB4
:1051B000DDE918432246DDE912613046FBF707FAC4
:1051C000CDE90201DDE916432246DDE910613046F2
:1051D000FBF7FDF980468946DDE914432246DDE907
:1051E0000E613046FBF7F3F9824642464B46FBF729
:1051F00047F9CDE90001DDE90223FBF741F904B0ED
:10520000BDE8F01F5DF814FB0FB42DE9F04FABB013
:10521000182234A904A8FAF785FF3CA80FC88DE826
:105220000F000AA8DDE93A2302F0F6FA18220AA9CB
:1052300024A8FAF777FFDDE92801CDE9000124A8C9
:105240000FC802F06EFB06460F46CDE9046726A89C
:105250000FC88DE80F000AA8DDE9242302F009FB3E
:1052600018220AA91EA8FAF75DFF182234A904A87B
:10527000FAF758FF42A80FC88DE80F000AA8419B13
:10528000409A02F0C9FA18220AA924A8FAF74AFF9C
:10529000DDE92801CDE9000124A80FC802F041FB97
:1052A00006460F46CDE9046726A80FC88DE80F0013
:1052B0000AA8DDE9242302F0DCFA18220AA918A8BA
:1052C000FAF730FF182234A904A8FAF72BFF48A8F0
:1052D0000FC88DE80F000AA8479B469A02F09CFA77
:1052E00018220AA924A8FAF71DFFDDE92801CDE953
:1052F000000124A80FC802F014FB06460F46CDE9B2
:10530000046726A80FC88DE80F000AA8DDE924234A
:1053100002F0AFFA18220AA912A8FAF703FF18221E
:1053200018A902A8FAF7FEFEDDE92201CDE9000185
:105330001EA80FC8FFF739FF21F000498046182248
:1053400012A902A8FAF7EEFEDDE91C01CDE9000181
:1053500018A80FC8FFF729FF21F0004B824618223A
:105360001EA902A8FAF7DEFEDDE91601CDE900016B
:1053700012A80FC8FFF719FF21F00041CDE9100175
:1053800052465B4640464946FBF774FA02D2544601
:105390005D4601E044464D4620462946DDE910239E
:1053A000FBF768FA01D2DDE91045204629462BB00B
:1053B000BDE8F00F5DF814FBD0B0002500260024F6
:1053C00000BF00BF00BFFBF745FEFDF76DF8FDF71E
:1053D0003FF8FCF7B7FFFEF753FE4FF4E13002F061
:1053E00095F941F61F4142F20F70FEF714FCFDF7EC
:1053F0009DF9FCF719FCD7A200210846FDF720FB18
:10540000D8A201210020FDF71BFBDAA20221002017
:10541000FDF716FBDBA203210020FDF711FBDDA247
:1054200004210020FDF70CFBDEA205210020FDF782
:1054300007FBE0A206210020FDF702FB88E1002D1A
:1054400077D1002464E0DF48005D6D285FD1DD493D
:10545000601C085C63285AD1A01D0144DA480A6820
:10546000026049684160D94AD9A1FAF77FFE10204D
:105470000090D6480523002102683220FDF79EFAED
:10548000D04904F10F000844CF4902680A6040681F
:105490004860CE4A121DCEA1CB48FAF767FE102015
:1054A0000090CA480523012142683220FDF786FAA0
:1054B000C44904F118000844C34902680A604068FE
:1054C0004860C24A0832C2A1BF48FAF74FFE102016
:1054D0000090BE480523022182683220FDF76EFA53
:1054E000B84904F121000144B7480A6802604968DC
:1054F0004160B64A0C32B6A1FAF738FE102000908F
:10550000B24805230321C2683220FDF757FA641C14
:10551000962C98D3002405E0AE480188A948FEF7F0
:105520002BFF641C0A2CF7D34FF4827102A8FAF700
:1055300012FE4FF6FE70854237D30020FBF774FD54
:10554000FCF7A4FEA449D1E9007121F000413846DE
:10555000FBF7C0F981460C2002234A460421009043
:105560003220FDF7DBF99C49D1E9027121F00041BD
:105570003846FBF7AFF981460C2002234A46052145
:1055800000903220FDF7CAF99349D1E9047121F066
:1055900000413846FBF79EF981460C2002234A461B
:1055A000062100903220FDF7B9F9681C0546B0F5D8
:1055B000803F00D30025C8218348FEF78FFE0646B2
:1055C000002E7CD08048FBF797FE032807D11321DB
:1055D0008248FEF7D1FEC8217B48FAF7BCFD7A4825
:1055E000FBF78AFE012809D1FCF7ACFE29217C4893
:1055F000FEF7C2FEC8217448FAF7ADFD7248FBF70A
:105600007BFE042824D143AA76A16F48FAF7AEFDA9
:10561000C8216D48FAF79FFD43A90420FDF764FCFB
:10562000342143A8FAF797FD71A204210020FDF769
:1056300007FA102000907348027804231946552079
:10564000FDF7BCF96F4A521C04210020FDF7F8F960
:105650005D48FBF751FE052824D143AA61A15A48B1
:10566000FAF784FDC8215848FAF775FD43A90520CB
:10567000FDF73AFC342143A8FAF76DFD5CA2062140
:105680000020FDF7DDF9102000905F480278042328
:1056900006215520FDF792F95B4A521C0621002095
:1056A000FDF7CEF94848FBF727FE062826D143AA86
:1056B0004CA14548FAF75AFDC821434800E047E0AD
:1056C000FAF749FD43A90620FDF70EFC342143A853
:1056D000FAF741FD46A200210846FDF7B1F9102076
:1056E00000904A480278042300215520FDF766F90E
:1056F000464A521C00210846FDF7A2F93248FBF742
:10570000FBFD072824D143AA36A12F48FAF72EFD26
:10571000C8212D48FAF71FFD43A90720FDF7E4FB38
:10572000342143A8FAF717FD31A202210020FDF72A
:1057300087F9102000903648027804230221552072
:10574000FDF73CF9324A521C02210020FDF778F99E
:1057500075E60000542D41302020202020202020FC
:10576000206D6D00542D413120202020202020204C
:10577000206D6D00542D413220202020202020203B
:10578000206D6D00542D413320202020202020202A
:10579000206D6D0054616720583A20202020202081
:1057A000206D000054616720593A202020202020DD
:1057B000206D0000546167205A3A202020202020CC
:1057C000206D000092030020800100206002002074
:1057D0002578000020000020480200200000002062
:1057E00070020020252A5B5E3D5D3D2573000000B0
:1057F00020202020202020202020202020202020A9
:1058000000000000CA020020FC0200202E0300203D
:105810006003002010B50246012000E050430B1E3B
:10582000A1F10104E1B2F9D110BD00002DE9F04D64
:105830001D460C4698B0174621F0004123F0004366
:10584000002814BF4FF0010C4FF0000C0CEB440C7F
:10585000FE4A0CEB02064FEA620C66452BD33E0073
:1058600018BF012606EB45061644F94A964222D394
:10587000F84A53EA070C02D0944205D148B918B04F
:1058800000201146BDE8F08D002808BF4FF0000C45
:1058900001D04FF0010C0CEB440212F5001F0AD8A6
:1058A000002F14BF4FF0010C4FF0000C0CEB450221
:1058B00012F5001F07D918B03A462B462146BDE81D
:1058C000F04DFEF745BF0022DFF88CA3002CB8BFD7
:1058D000534526DADFF884C36345A8BF022220DAE5
:1058E000DFF870C39C451CDCDFF874C30CEB235C51
:1058F000BCF1140F08DDCCF1340627FA06FC0CFAD3
:1059000006F6BE420DD108E05FB9CCF1140623FAC9
:1059100006FC0CFA06F69E4203D10CF00102C2F11D
:10592000020251EA000C19D1002D17DA002C18BF21
:10593000022A01D0012A07D00220FEF731FF18B059
:10594000BDE8F04DFEF7FCBE0220FEF729FFFEF792
:10595000F7FE18B081F00041BDE8F08DB7F1000C02
:105960006CD1534525D104F1804212F5801201BF5C
:1059700000280020B74918B008BFBDE8F08DB54831
:10598000884207DC002DA1BF6046294618B0BDE85B
:10599000F08D07E0281E05DA80F0004118B060465F
:1059A000BDE8F08DAF497944D1E9000118B0BDE8F8
:1059B000F08DDFF8A0C2634525D1002D1FDA19B1A3
:1059C000514512D1D8B909E0002840F0EC82A24A32
:1059D000214618B062F31E01BDE8F08D002021467B
:1059E00018B060F31E01BDE8F08D08DA18B0234648
:1059F000BDE8F04D024600206146FAF75ABE18B0E5
:105A00002146BDE8F08D514518DAB5F1804F0DD033
:105A1000A5F1005CBCF1FF5C10D1B4F1000C0DDB12
:105A200018B06146BDE8F04D00F0FABD234618B04D
:105A30000246BDE8F04D1946FAF7C9BD060024F04C
:105A4000004C3BD1D9B1514533D1002C06DD002D9E
:105A5000A1BF0020514618B0BDE8F08D002C01DD3B
:105A6000002D1BDB002C13DA002D11DB012A4FF077
:105A7000000014BF78497C4918B0BDE8F08D022AB7
:105A800018BF002C0AD0012A08D1002C06DA0AE03F
:105A9000002CB8BF002D11DA012A04D0002018B064
:105AA0000146BDE8F08D18B000204FF00041BDE880
:105AB000F08DA1F14050B0F17F601AD0012000EBD1
:105AC000E47050EA020421D0624C521E4FF0000BE9
:105AD000104304BF4FF0000B644C654883427CDDEB
